:020000041000EA
:1000000000B5324B212058609868022188439860DF
:10001000D860186158612E4B002199600221596106
:100020000121F02299502B49196001219960352056
:1000300000F044F80222904214D00621196600F024
:1000400034F8196E01211966002018661A6600F04E
:100050002CF8196E196E196E052000F02FF8012189
:100060000842F9D1002199601B49196000215960AB
:100070001A491B48016001219960EB211966A021F2
:10008000196600F012F800219960164914480160C1
:100090000121996001BC002800D000471248134993
:1000A000086003C880F30888084703B5996A0420EC
:1000B0000142FBD001200142F8D103BD02B5186610
:1000C0001866FFF7F2FF186E186E02BD00000240BE
:1000D000000000180000070000035F00212200005C
:1000E000F4000018222000A00001001008ED00E03C
:1000F00000000000000000000000000074B24E7A12
:1001000000200420F7010010CB010010CD010010E9
:10011000C9010010C9010010C9010010C901001077
:10012000C9010010C9010010C9010010CF01001061
:10013000C9010010C9010010D1010010D301001045
:10014000C1010010C1010010C1010010C101001067
:10015000C1010010C1010010C1010010C101001057
:10016000C1010010C1010010C1010010C101001047
:10017000C1010010C1010010C1010010C101001037
:10018000C1010010C1010010C1010010C101001027
:10019000C1010010C1010010C1010010C101001017
:1001A000C1010010C1010010C1010010C101001007
:1001B000C1010010C1010010C1010010C1010010F7
:1001C000EFF30580103800BE00BE00BE00BE00BECA
:1001D00000BE00BEF2EB8871DC250110082601107C
:1001E0003802001090A31AE71E481F49086006C88D
:1001F00081F3088810471D480068002801D019487D
:10020000F3E70DA40ECC002902D000F012F8F9E7B4
:100210001749184A002000E001C19142FCD116495B
:100220008847164988471649884700BEFDE701C937
:1002300001C29A42FBD3704708260110D00000206B
:1002400088030020C02801100000042000000420C2
:10025000C02801100010042000100420000000003D
:10026000704700000000000008ED00E0000000D032
:1002700088030020F0090020254400104D0B0010D9
:10028000E5430010F8B5C04606480749091A8B1027
:10029000C90FC91810B5491003D0044B002B00D06A
:1002A000984710BD8803002088030020000000004C
:1002B000054B10B5002B03D00449054800E000BFF2
:1002C000FFF7E2FF10BDC04600000000400600201E
:1002D0000C4D001010B5D0231B0604225A61534B5D
:1002E000033A1A60524A936A14331361514B1B68E4
:1002F000012B04D0D0231B0604229A6110BD4E4B63
:100300001B680B2BF6D04C4B1B68012B62D04A4B61
:100310001B68022B66D0494B1968494B1A68521862
:100320001A60484A1468E1171B681B0E464A5B00B6
:100330009A5ED317200002F09BFE4904C00B0143D4
:100340003D4B1B68012B04D03B4B1B68022B00D09C
:100350000021CB025B1ADB13802212019446634416
:100360003A4A13603A4A1268F92A43D8394A12685D
:10037000A21834490A60C022920113439BB2364A44
:100380001380364A1380364B1B689A01A021C90599
:100390008C4662441269D20103D49B0163442F4A04
:1003A000DA632B4B1A6801321A601A682D4B9A4295
:1003B000A0D1274B00221A601E4B1A602A4B1B68E3
:1003C000002B03D1294B1B68012B1ED01D4B002293
:1003D0001A608FE71E4B1A68254B9200D258174BB4
:1003E0001A6098E71A4B1A68224B9200D258134BA6
:1003F0001A6090E7164A11681F4A9142BBD91F4AFA
:100400001268A41A0F4A1460B5E71D4B1B680F2B26
:10041000DCDC1B4B1A681B4B9200D3580133D5D040
:10042000174A136801331360D0E7C04634700540A3
:100430000040054038060020700600205C060020C1
:10044000580600200C06002028200110C8050020B6
:1004500008060020D0050020E8090020EC09002053
:100460001406002064190000300600201806002041
:1004700098BA0010085500106A18000010060020F5
:100480003C0600205002002070B5040001230268E1
:10049000002A00D1DFE0884A2260002B00D0C6E0AD
:1004A000012070BD854B1868854B1B68034216D030
:1004B000844B00221A60834B1B680B2B08DC824A9A
:1004C00099008A58904203D07E4A01331360F2E7C4
:1004D0000C2B0DD17B4B012252421A6008E0794B64
:1004E000012252421A6003E0784B1B68012B17D09F
:1004F000774B1B68002B3BD1724B1B685A1C33D0C7
:10050000734A01211160734A136001F073FB724A50
:10051000002380185941714B186059600023BAE7D5
:100520006F4B1B68002BE3D16E4A11686E4A89003D
:100530008A5864490A6067490A6065490120086071
:10054000511C01D00E2AD3DD604A002111600F2B0F
:1005500006DC654A99000120404288500133F6E7E5
:10056000604B00221A60C3E7594B00221A60CCE7A7
:10057000574B1B68012B11D0554B1B68022B44D0E5
:10058000534B1B68032BC0D1524B1A684D4B1B6851
:100590009A4248D04E4B00221A60B6E74D4B1A687B
:1005A000484B1B689A4203D0494B00221A60ACE7C3
:1005B000474A022111600B2B16D0494A1268002AC3
:1005C0000ED05A1E022A0BD8464A12680F2A07DCA0
:1005D000444A106844498000435013680133136053
:1005E000424B01221A6090E73D4A1268002A03D16B
:1005F0003B4A01391160E0E7394A00211160394A6C
:100600001160324A01311160D7E7324B1A682D4B25
:100610001B689A4203D02E4B03221A6075E72C4BBD
:1006200002221A6071E72A4B02221A606DE701F07C
:10063000E1FA2A4B1A685B688B4200D930E702D195
:10064000824200D92CE7D0231B061B68012B2FD038
:10065000274B01221A601D4B1B68002B00D043E77B
:10066000184B00221A60174B1B68032B00DD19E79B
:10067000204A9B009B585B02D0252D062A695340D7
:10068000F02252011340EB610120002101F0B6F984
:100690006A68520A7F231340084A1360084A1268A6
:1006A0001A4200D0FEE6074A136801331360DAE706
:1006B000114B01221A60CEE7960400103406002088
:1006C000940200202C060020A8020020180600201A
:1006D000CC0500207006002030750000C005002009
:1006E000300600203C060020500200203806002082
:1006F00074060020980200207806002070B5036878
:10070000002B1BD1324B1B68002B18D1314B002220
:100710001A60314C2F4B1B68304A12689342F5DA4D
:100720002D4A5900CB189B00D21893682000984797
:10073000284A1368013313600C34EBE79F46012B02
:100740001DD000230360032070BD224E336824496E
:100750009B005A5801325A5001F04CFA214B1A684A
:100760005B68801A994104000D0032681E4BD2006C
:100770009B181868596800196941186059601B4A2C
:10078000136801331360134B00221A60124C114A94
:10079000124B12681B689A42F1DA154D00232B6048
:1007A00001F028FA0F4B186059600B4B094A116889
:1007B0004A00521892009B189B68200098472B68AB
:1007C000012BC2D0034A1368013313600C34DEE7F7
:1007D0008406002028060020080700208C06002040
:1007E000B0070020B0050020580500208407002035
:1007F0007806002070B50368002B1BD1324B1B68B4
:10080000002B18D1314B00221A60314C2F4B1B6842
:10081000304A12689342F5DA2D4A5900CB189B00F2
:10082000D218936820009847284A13680133136050
:100830000C34EBE79F46012B1DD0002303600320FF
:1008400070BD224E336824499B005A5801325A50D9
:1008500001F0D0F9214B1A685B68801A99410400B5
:100860000D0032681E4BD2009B1818685968001999
:100870006941186059601B4A136801331360134BB8
:1008800000221A60124C114A124B12681B689A42DD
:10089000F1DA154D00232B6001F0ACF90F4B186015
:1008A00059600B4B094A11684A00521892009B1874
:1008B0009B68200098472B68012BC2D0034A13681D
:1008C000013313600C34DEE7840600202406002088
:1008D000900600208806002088070020A805002038
:1008E00008050020800700207406002010B50400D1
:1008F00001230268002A1DD01B4A2260002B07D169
:10090000012010BDD0231B06802292049A611BE0B7
:1009100001F070F9154B1A685B688B42F0D801D171
:100920008242EDD8D0231B061B68012B17D0104B39
:1009300001221A60D0231B065B689B01E2D4D023FE
:100940001B06802292045A6101F054F9094A0023DF
:1009500080185941054B186059600023CCE7064BBD
:1009600001221A60E6E7C046F8080010B80500202A
:100970007406002020A107007806002070B584B01E
:1009800006000C0001AB02AA03A901F0C7FA051E7C
:1009900004D1002C09D1200004B070BD019A029945
:1009A000039801F087FA2C00F5E70248310000F0C7
:1009B00003FAC046104D001010B50C2906D8036884
:1009C000064A1340C9020B43036010BD044B054A9D
:1009D0002A210548FF3103F009FDC046FF87FFFFCC
:1009E000444D0010EC540010644D001000B583B06D
:1009F00001000023019310330193134B019301A8CD
:100A0000FFF7DAFF019B0C22190091430A0008212D
:100A10000A4301920D4A1A400A4301920C4A1A40B5
:100A20000A4301920B4A1A401143019109210A43DA
:100A30000192094A1A400A430192084818400843A3
:100A4000019003B000BDC04610801F0033F8FFFFC7
:100A500033F8BFFF33F89FFF33F81FFF31F81FFF54
:100A600010B53F2906D80368064A1340C9030B4353
:100A7000036010BD044B054A1C210548FF3103F0FB
:100A8000B5FCC046FF7FE0FFBC4D0010D454001001
:100A9000644D001010B501000A4B1868092801DDEB
:100AA000002010BD084C43001A189200A218506094
:100AB00091601B189B0000221A51024B421C1A60C5
:100AC000EFE7C046880600209006002010B5010020
:100AD0000A4B1868092801DD002010BD084C4300AE
:100AE0001A189200A218506091601B189B000022F7
:100AF0001A51024B421C1A60EFE7C0468C060020D8
:100B00000807002010B5D0231B061B68012B0DD051
:100B10000B48FFF7BFFFD0231B061B68012B09D032
:100B2000084800230360FFF765FE10BD0448FFF787
:100B3000CDFFF0E7044800230360FFF7DFFDF4E793
:100B4000890400107C0600208006002070B582B069
:100B500001215E48FFF712FF03F084FD5C4C5D4904
:100B6000200003F087FF6368022213405A490A609D
:100B700021680D325140C0320A4058490A60584A33
:100B800013600121042000F0C7F80121062000F0C5
:100B9000C3F80121072000F0BFF80121052000F073
:100BA000BBF8082000F0EEF8D024240680235B0078
:100BB0006362A361022000F0E5F804256562A56187
:100BC000192000F0DFF880239B046362A3610120F9
:100BD00004F016F8434E3060FFF708FF01900C2335
:100BE00002009A4313002B4301931C2302009A43F3
:100BF00013002B4301933C23984328430190102179
:100C000001A8FFF72DFF33689B01A022D20594466F
:100C10006344354A1A60354A5A60033D9D60019A23
:100C20001A61334B18684114C003FA22D20300231F
:100C300001F008FC2F4B18602F4B18602F4B1D60E4
:100C40002F49002000F0F4F90121002000F0DEF926
:100C50002C4A936A14331361FE20000200F09DF8C1
:100C6000F0225201626223691340E36101220021F4
:100C70000D2000F06BF8012200210E2000F066F834
:100C8000012200210F2000F061F81F4803F0A6FFA9
:100C90002368012B0FD01D48FFF7FCFED0231B0655
:100CA0001B68012B0BD01A4800230360FFF7A2FD3D
:100CB000002002B070BD1548FFF708FFEEE71548A9
:100CC00000230360FFF71AFDF2E7C04690D003004F
:100CD00000C00340002D310104F0034000D0034068
:100CE00004E0034014060020EC09002008C0034083
:100CF00090020020D005002010060020386005403A
:100D0000D502001000400540050B0010ED08001052
:100D10007C0600208006002010B58300084A9A183F
:100D200014684022544080322240064CA44663445A
:100D30001A60C000044B9C466044416010BDC04630
:100D400004C0014004D001400040014080000C4B31
:100D50009C46604400290ED00823002A0DD00422AE
:100D60001343026853400C221340802252019446E0
:100D70006044036070470023EFE70022F0E7C046BD
:100D800004C0014010B501238340D02212069362B3
:100D900093610521FFF7C0FF10BD70B50500002469
:100DA00001E06D0801341D2C05D8EB07F9D52000B2
:100DB000FFF7E8FFF5E770BD0FB400B583B0084852
:100DC00003F055FC049B002B07D005A901911800E6
:100DD00003F05CFC034803F04AFC012003F000FB35
:100DE000D04D0010E04D0010EFF3108072B6034BB1
:100DF0001B68002BFBD0BFF35F8F70472C0100D026
:100E0000BFF35F8F024B00221A6080F31088704797
:100E10002C0100D0F8B506000C001500FFF7E4FF28
:100E2000E308F718F15C07222240012393400B42AC
:100E300005D1DBB20B433B70FFF7E2FFF8BD2100A9
:100E40002800FFF7B9FFF0B583B006000191140048
:100E50001F00FFF7C9FF00E00134BC420CD8E308D3
:100E6000F518F35C0721214001228A401A42F3D190
:100E7000D2B21A432A7001E001246442FFF7C0FF96
:100E8000002C02DB200003B0F0BD019B002BF9D049
:100E90000898FFF791FF0000054A1078431CDBB269
:100EA0001370172B02D9130010221A707047C04616
:100EB000D8020020002307E0054A9A189200BFF3E9
:100EC0005F8F0021116001331F2BF5D97047C04699
:100ED00040000034074B9B68103080001950BFF36E
:100EE0005F8FBFF35F8F044B0021196082F310887E
:100EF0007047C04600ED00E0240100D00048704774
:100F000000E400E010B5FFF7F9FF002302E0034A18
:100F100004C00133072BFAD910BDC0468080808001
:100F200010B50388DA0A1C2A05D15B055B1502336C
:100F30005B00C01810BD034B034A8E2103484900D3
:100F400003F054FAE44D001074220110FC4D00101F
:100F500010B5091A0B1F0A4A88180A4A904208D885
:100F6000C90706D45B105B055B0D0748184380B2C8
:100F700010BD064B064A87210648490003F036FAA1
:100F8000FC070000FE0F000000E0FFFF444E0010D1
:100F900068220110FC4D001010B5091A04394A08E6
:100FA000090B08D14905490D064B0B430380064B3D
:100FB0001343438010BD054B054A8B21054849006A
:100FC00003F014FA00F0FFFF00F8FFFF744E00106A
:100FD00044220110FC4D001001238340034A106895
:100FE0001840431E9841C0B27047C04600E100E07F
:100FF000002A05D0044BC022520099501960704756
:10100000014A8023D150FAE700E100E010B50A0060
:101010001F230340012199404009FFF7E9FF10BD5C
:10102000024B9B6810308000C058704700ED00E014
:1010300070B504000D00EFF3108672B60C4B1B6800
:10104000002BFBD0BFF35F8F2000FFF7E9FF094BB8
:10105000984201D0A84205D1320029002000FFF7B4
:1010600039FF70BD044B054A0548ED2103F0BEF978
:10107000240100D0C1010010844E00108422011010
:10108000FC4D0010F0B5CE46474680B583B0060053
:101090000D00EFF3108872B64F4B1B68002BFBD08E
:1010A000BFF35F8F4D4B9A6834001034A300D758BC
:1010B0004B4B9F4207D0AF4200D18AE00197494B8A
:1010C000FB1A2F2B09D9424639003000FFF702FFE7
:1010D00003B0C0BCB946B046F0BD3000FFF77CFF9E
:1010E000814600213000FFF791FFBFF35F8FEFF3E0
:1010F0000581002901D08C4211D10123019C9C4320
:101100000020A3689D4211D00622A256002A0CDBC3
:1011100053009B189B00334A2000D418F1E7324B50
:10112000324A3348334903F061F920009D4249D1E6
:1011300006256557002D2BDB2A4B6A0052199200B9
:101140009B189A68A260DA79E2719B795BB2A3710D
:10115000002B0FDA2848A080224B6A005219920017
:101160009B18264A11789971157049463000FFF78F
:101170004DFFA8E76800401980001A4BC0180430E2
:10118000FFF7CEFE0100231D1800FFF7E1FEE2E7A6
:10119000002912D100280ED0FF238371184B8380C1
:1011A00016490B78A3710F4A164BA41A6441634386
:1011B0001B0D0B70D9E70A4FF2E71349201DFFF70B
:1011C000EBFED2E7114B094A91210948890003F04F
:1011D0000DF9034F77E7C046240100D000ED00E091
:1011E000C1010010DC020020BC4E0010542201108E
:1011F000FC4D00100202000001BD0000EE090020BD
:1012000001BDFFFFAAAA000016030020F04E001047
:10121000F8B5012202432C4BD31A2F2B28D8EFF319
:101220000583002B2AD0EFF3108472B62749096892
:101230000029FBD0BFF35F8F234D25490600761BA5
:1012400076417143090D4DB2224989689B00C95806
:10125000914219D00021032930D81B4B4A00521863
:1012600092009B189B795BB2AB421DD00131F2E733
:10127000194B1A4A1A481B4903F0B8F81A4B174A77
:1012800017481A4903F0B2F8124A92681849D15027
:10129000184B1A7882711D70BFF35F8F0B4B0022C1
:1012A0001A6084F31088F8BD074B4A005618B60040
:1012B0009E19FF27B771104AB280E9E70F4B074A22
:1012C00007480F4903F092F8DC020020240100D007
:1012D000AAAA000000ED00E0F84E0010282201103C
:1012E000FC4D00107F020000204F00108202000021
:1012F000C1010010EE09002001BDFFFF2C4F0010BE
:1013000093020000024B9C466144890001607047D3
:101310004000003410B50400FFF7BEFD01002000BE
:10132000FFF7F0FFFF232371BFF35F8F10BD10B5F0
:101330000400FFF7B1FD01002000FFF7E3FFFF23EA
:10134000237100236371BFF35F8F10BD10B50D4C87
:1013500009E00D4B0D4A0E481A2103F047F8200012
:10136000FFF7D8FF08340B4B9C4209D22368002BAF
:10137000F5D0012BEDD12000FFF7D9FF0834F2E7BB
:1013800010BDC04678030020344F0010C422011065
:10139000544F00108803002030B5846A151B0B1DC4
:1013A0009B001B581B1B9D4204D3046A01238B40E6
:1013B000234202D1043189000A5030BD00040843A1
:1013C000704700000A4B1968EFF3108372B60A6881
:1013D000002AFCD0BFF35F8F054A1268BFF35F8F0E
:1013E0000021116083F3108840BF00200021704766
:1013F000DC090020F0B5DE4657464E464546E0B5CE
:1014000087B0EFF3058303221A409246AE4B920059
:10141000D7583B78534507D101235246934099460C
:10142000AA4B4A461A6025E1A94BAA4AAA4892212A
:1014300002F0DCFF7A6973009B19DB009046984448
:1014400043469C68DD68A54800F0A2FB001BA9414B
:10145000002900DA16E1002D74DB43461B699B4628
:101460009F4B9B454FD00823F85E4346598889B26D
:10147000FFF7A4FF43465969D847029003910299A8
:10148000039A0B00100013435CD013000A000028DD
:1014900047DAA41A9D41009401954346009C019DA2
:1014A0009C60DD600021595E002900DAEAE078697D
:1014B0004B005B18DB00C3189A68DB68A41A9D41D7
:1014C000002D00DADEE039813D00083584460491C4
:1014D0002A000597B346009E019F049B002B2ADB40
:1014E0000023D45E63001B19DB0063449C68DD6845
:1014F00030003900001BA94100291CDB1A00002123
:10150000595E0491E9E743465B699B461B6958466F
:101510009847002816D05B461A685B6802920393CE
:10152000ADE76E4800F034FB029B039C1B184C4156
:1015300000930194B1E70499059F5E4643461980E4
:1015400016809FE0434600229B5E3B813A69EFF3A1
:10155000108372B611680029FCD0BFF35F8F02219F
:101560007A5E41460A807E803A69BFF35F8F002130
:10157000116083F3108885E03969EFF3108372B648
:101580000A68002AFCD0BFF35F8FB88800B201223E
:101590005242BA803A69BFF35F8F0021116083F332
:1015A00010880500BC461CE0049300229A5E002AC5
:1015B0000EDB049B0021595E4B005B18DB0063448B
:1015C0009868D96834003D00241A8D41002DEBDA6B
:1015D00004995D46009B9C4644460D800023E55ED1
:1015E0002280002D12DB634658696C006419E40008
:1015F0000419A668E7686146083108229A5EAB467E
:10160000049163460093A0468446D0E767463EE0D7
:101610000023BB71390008310823F85E0EE0012475
:101620006442E5179460D56008243B5F834204D090
:101630000E8008243B5F138038813000431C29D082
:101640007C6943001B18DB00E218E65E53881BB27E
:10165000002BE4DB1100F0E722002B0051461F486D
:10166000FFF79AFE1D4800F093FA241A8D41002DD1
:1016700022DC1FD0194B4A465A630823FE5E002E17
:1016800000DBD7E6BB881BB2002B00DB74E7BB791D
:10169000002BBDD10823FA5E002A0DDB79695300C7
:1016A0009B18DB00CB189C68DD68631CD4D16B1CD5
:1016B000D8D0D1E7002CDDD040BF07B0F0BCBB468E
:1016C000B246A946A046F0BD600600203C70054029
:1016D000E84F0010F02201101450001000400540A7
:1016E000F513001070B504000D0011000126AE4086
:1016F00006622800FFF79CFC01212800FFF786FC0A
:10170000024B9C466444266070BDC04638200000F1
:10171000F8B5CE46474680B50600894690461F007C
:10172000C160FFF7B9FB154B9C46604480003061F7
:1017300043463370BBB27381D022120612787270A6
:10174000012252423281B2809B187380002406E04D
:10175000621E736965002D19ED005A530134BC42B5
:10176000F6D3074B42469200D650064A41464846B9
:10177000FFF7B8FFC0BCB946B046F8BD4000003422
:1017800060060020F513001010B5064B1B69002BF6
:1017900001D0044810BD044B044A0548652102F0FD
:1017A00025FEC0462403002054500010D82201100A
:1017B00014500010F8B504000569EFF3108072B6FC
:1017C00029680029FCD0BFF35F8F0221665E65693E
:1017D00071008919C9006D18002E02DB0027E95F2E
:1017E00061802169BFF35F8F00270F6080F310884D
:1017F000002E2CDB0699296107996961AA60EB60CC
:101800006B8801335B04590C002B00D101216980E6
:101810003000FFF7D3FD2169EFF3108372B60A6839
:10182000002AFCD0BFF35F8FA2882A80A68022699D
:10183000BFF35F8F0021116083F31088E368217884
:1018400001228A4003498C4663441A60F8BD012096
:101850004042FBE73C20000070B582B00600140057
:101860001D0008AB1B78002B07D100F0C3F9220044
:101870002B00121A8B41002B0ADB079B0193069B5E
:10188000009322002B003000FFF794FF02B070BDE0
:101890000020FBE7F0B5C64600B584B005008846D9
:1018A00016001F000AAB1C78FFF76EFF0294019729
:1018B00000962A004346FFF7CFFF04B080BCB8462D
:1018C000F0BD000030B504000A1443899A422EDAB4
:1018D000406953009B18DB00C3182569EFF31082A1
:1018E00072B628680028FCD0BFF35F8F588885B295
:1018F0000904090C884212D000202369BFF35F8FCE
:101900000021196082F31088002811D0E368217843
:1019100001228A4007498C4663441A6008E0064960
:10192000294389B259800123A3710120E5E70020F2
:1019300030BDC0463C2000000080FFFF10B5040011
:10194000FFF722FF2100FFF7BDFF10BDF0B583B008
:1019500006000F00EFF30583002B1AD10624644222
:10196000E517A4197D418D4202D803D1844201D9E3
:101970000024002500F03EF922002B00121A8B41B2
:10198000002B0BDC08D03000390000F045F903B023
:10199000F0BD1648FFF710FA002AF4D0144A0023CD
:1019A000009320002900FFF775FF002813DAEAE70B
:1019B000104B1968EFF3108372B60A68002AFCD046
:1019C000BFF35F8F0B4A1268BFF35F8F0021116076
:1019D00083F3108820BF084B5B6A9D42E8D8064914
:1019E000896AA142CFD29D42CDD1E1E77850001063
:1019F000C5130010DC0900200040054070B504004C
:101A00000D0000F0F7F800196941002902DBFFF72B
:101A10009DFF70BD012040420049F8E7FFFFFF7FB6
:101A2000F0B5CE46474680B583B005000C00EFF315
:101A30000583002B15D03F4B5B6A8B4209D33D4A8F
:101A4000926A82420BD28B4201D0012002E0002038
:101A500000E0002003B0C0BCB946B046F0BD012094
:101A6000F8E7FFF791FEC3689946037898462E0081
:101A70002700484600F08CF802000B00B61A9F4180
:101A8000434604339B004A469B581B1A0022BA4225
:101A90000FDC0CD020BF274B5B6A9C422DD8254A17
:101AA000926AAA422BD29C4225D00120D2E7B342AF
:101AB000F0D9214A0023009328002100FFF7EAFE15
:101AC00000281EDD1B4B5B6A9C4205D8194A926AAE
:101AD000AA4202D29C4200D120BFFFF72FFF154B34
:101AE0005B6A9C4221D8134A926AAA421FD29C4246
:101AF00019D00120AEE70020ACE70020AAE70120C2
:101B0000A8E70C4B5B6A9C4209D80A4A926AAA422F
:101B100007D29C4201D001209CE700209AE70020D8
:101B200098E7012096E7002094E7002092E7012043
:101B300090E7C04600400540C513001000487047BC
:101B40000040054010B50B4B1B69002B04D00A4820
:101B50000A21FFF7D7FB10BDFFF7F0FF04000321B8
:101B600000F00CF80348102303222100FFF7D0FDFA
:101B7000EDE7C04624030020DC09002010B5024A2E
:101B80000248FFF747F910BDC8500010DC050020DF
:101B90000200436A906A1900536A9942FAD1704769
:101BA000416A00E0416A9942FCD300E0416A9942EF
:101BB00002D1816A9142F9D37047F0B5C64600B5AB
:101BC000804614001D00FFF7E3FF06000F0022000F
:101BD0002B0092197B41994202D804D1904202D93C
:101BE00001225242D3174046FFF7DAFF80BCB846C5
:101BF000F0BD000010B50248FFF7CAFF10BDC04697
:101C00000040054010B502000B000248FFF7D5FF69
:101C100010BDC0460040054010B502000B00024850
:101C2000FFF7BEFF10BDC04600400540074B98427D
:101C30000AD0162301229A40054B1A60054B1B68F7
:101C400011009943FAD170471723F3E7008003404E
:101C500000F0004008C0004070B5046BE30701D4F9
:101C6000200070BD0B4BC3180B4A1A60456A836A8B
:101C7000AD01ED18AD02062000F016F9074900F09D
:101C8000BBFB0100280000F0B7FB0021FFF7BAFF03
:101C9000E6E7C04630300000010300004E0E0000B1
:101CA00070B504000E001500FFF7D6FFE36A5E4032
:101CB0003540024BE3181D60206370BD2C100000FE
:101CC00070B505000C00062000F0EEF8C000210001
:101CD00000F092FB0130C60907D00E4B9E4215D88A
:101CE000400834003F26064000E001246C62AE62EA
:101CF000002200212800FFF7D3FF062000F0D4F8CF
:101D00008000A101891900F077FB70BD0026024C0C
:101D1000ECE7C046FEFF0000FFFF0000002909D0ED
:101D20000A22064B9C46604443425841044B400003
:101D3000C252704780225200F3E7C0460080FCBFC9
:101D4000E009002070B504000D00062000F0ACF89A
:101D500000281ED0104B9C421CD016220123934019
:101D60000E4A13602000FFF761FF00212000FFF7FB
:101D7000D5FF29002000FFF7A3FFE26A70235A4035
:101D80000E331340064AA2181360064B2363032345
:101D9000A36470BD1722E1E70080034000E000402B
:101DA0002C10000001030000F8B5D646474680B568
:101DB00006000D001700984644002418A400294B83
:101DC0009C4664446368089A934200D26260331F61
:101DD000DBB29A46012B2ED980221201C0239B012F
:101DE000E3181A60204BB200D158002907D0586977
:101DF00000F002FB013043001B18033BFDD27F01C2
:101E000023685F40E0233B4080225201A218136008
:101E10005346012B1AD980239B01E318802212011B
:101E20001A60089B6360104BB6004246F250C0BC7B
:101E3000BA46B046F8BD012DCED10322C0239B0186
:101E4000E3181A60A368DB07FCD5D8E7216869406E
:101E500003230B401360A3680122AA401A42FAD060
:101E6000D9E7C04600800040E0050020F0B583B00F
:101E700005000E0017001800089900F0BDFA0300D5
:101E8000089A140200943A0031002800FFF78CFFF2
:101E900003B0F0BD10B582B0802464000094FFF759
:101EA00083FF02B010BD0000014B8000C058704796
:101EB000E0050020F0B583B005000E001400144FBB
:101EC0003B00012201210520FFF7E4FF00943300CD
:101ED0002A0001210F4800F073F821007143280007
:101EE00000F08AFA04000C4B002202210420FFF7C4
:101EF000D1FF2300002201210520FFF7CBFF3B008B
:101F0000022200210620FFF7C5FF03B0F0BDC04646
:101F1000006CDC0200800240001BB700F0B5DE461A
:101F200057464E464546E0B583B080468B469246BE
:101F30000193A0235B0099462AE0013C002C1ED0AF
:101F400025007D432900300000F056FA4045F4D1C9
:101F50002900300000F050FA0029EED1144B4A4617
:101F600053435A46136053461F60019B1C60012077
:101F700003B0F0BCBB46B246A946A046F0BD013F47
:101F8000002F01D03C00D9E701235B429C46E1448D
:101F90004B460F2B09D9074E4B465E43064BF218B2
:101FA000064B9A42F0D80727EAE70020E0E7C04650
:101FB000001BB700E02E0000508EF4FF50F80C001C
:101FC000F0B5C64600B504000E0017001D003748E6
:101FD00000F012FA8046364BFA18364B9A4239D83E
:101FE0000100380000F008FA0200103A98235B0064
:101FF0009A4235D86B1E062B38D8069B013B062B20
:1020000034D83F09474537D32D04069B1B031D4396
:102010002368002B36DB284B9C4244D00C22012342
:102020009340264A1360264A1360264A1268190014
:1020300091430A1EF9D12660A060234BE318213298
:102040001A602268002AFCDAE56008221A6080BC67
:10205000B846F0BD1D4B1E4A1E48112102F0C6F9BC
:102060001D4B1B4A1B48192102F0C0F91B4B184A93
:1020700018481C2102F0BAF9194B154A15482321BA
:1020800002F0B4F922683F231340B342C3D1A368DE
:102090001B051B0D8342BED1E368EE22D202134022
:1020A000AB42B8D1D3E70D22B9E7C046001BB70059
:1020B00080E84BD380F8A93200C0024000E0004025
:1020C00000F0004008C0004004300000EC50001058
:1020D000082301103C51001084510010A051001041
:1020E000EC51001080239B000B43014AD3627047E0
:1020F0000080054010B5010018231B8814221088A9
:10210000984710BD10B5010018231B8816221088AF
:10211000984710BDF0B5C64600B507000E00002573
:102120000123984600E00135B5420AD2AC003C19C3
:102130002068FFF7DFFF20600028F4D100239846D5
:10214000F1E7404680BCB846F0BD000070B5040021
:102150000D000648FFF7CEFF0300002C03DB012033
:10216000A040290098470020FBE7C04655420000E8
:10217000074BAA2212011A608D225200DA60054B29
:10218000054A1A60024B5B68002BFBDA7047C046B9
:10219000004002400060024000B0FA0010B50400A8
:1021A00001E008CC9847024B9C42FAD310BDC046D0
:1021B000044D00107047000010B50248FFF7EEFF15
:1021C00010BDC046C84C001010B50248FFF7E6FF2E
:1021D00010BDC046FC4C0010054B064A1A60064B69
:1021E000064A1A60064B1A68044B9343FAD17047AB
:1021F00000E00040BFCDFBFE00F00040FE7F3C0051
:1022000008C00040044BDB6C002B03D1034B802241
:10221000D2021A607047C046000011504C20115085
:10222000044B054A1A60054B1B68DB43DB01FAD1FE
:102230007047C04600F00040FFFFFF0108C00040AB
:10224000034B40229A675A671A67DA667047C0469E
:1022500000F0014010B5FEF72DFE10BD10B50C4A80
:102260000C4BD21A92101400302A00D9302292005E
:102270000948084900F0B6FF04E0084A064BA100EF
:10228000CA5001342F2CF8D9034B054A936010BD76
:10229000C00100100001001000000020C10100106A
:1022A00000ED00E070B50420FFF7FEFD064900F0E8
:1022B000A3F805000024002C00DD70BDE0B2290069
:1022C000FFF710FF0134F6E740420F0030B583B04E
:1022D000274B00229A67FFF74BFF264B01221A601B
:1022E000234B5B6C012BFBD1234B03221A60204B49
:1022F0009B6B012BFBD10133009304331F4A012157
:102300001F48FFF75DFE052300931E4A01211E486A
:10231000FFF756FE1D4B002202210420FFF7BAFDF5
:102320001B4D2B00002201210520FFF7B3FD194CA6
:102330002300002200210720FFF7ACFD230000222C
:1023400000210820FFF7A6FD8023DB000093230077
:10235000002200210920FFF789FD2B000022002127
:102360000620FFF797FDFFF79DFF03B030BDC04685
:10237000008000403CB0004030B00040002F685961
:1023800000800240008C864700C00240001BB7005E
:1023900040597307006CDC0201480421014B1847C7
:1023A0004003002015210010124A936F9B0815D29C
:1023B0009066D166002905D0FFE7FFE7FFE7516F80
:1023C000106F704704B580210906C21751400028DC
:1023D00000D0C84302F068FC002104BDF0B5146EC3
:1023E000556E576F166FFFF7E3FF14665566576714
:1023F0001667F0BD000000D0114A936F9B0813D2FE
:1024000010665166002905D0FFE7FFE7FFE7516F2F
:10241000106F704704B5002801D00020C04302F0BF
:1024200043FC002104BDC046F0B5146E556E576FD5
:10243000166FFFF7E5FF1466556657671667F0BD20
:10244000000000D094464A4A926F9208624601D238
:1024500028E0C046F0B5464E346E756E776F366F25
:1024600000F020F89446424A14665566576716678E
:102470006246F0BD94463E4A926F9208624601D28F
:1024800054E0C046F0B53A4E346E756E776F366FD5
:1024900000F04CF89446364A14665566576716673E
:1024A0006246F0BD002B24DB11D000293EDA00B5D6
:1024B000C943404200D1013100F038F8C9434042DD
:1024C00000D10131DB43524200D1013300BD002A6B
:1024D000EBD1002801D1002905D00020C90FC90780
:1024E00001D1C043410800B502F0D6FB0022002311
:1024F00000BD00B500290ADBDB43524200D10133A5
:1025000000F014F8C943404200D1013100BDC94375
:10251000404200D10131DB43524200D1013300F08F
:1025200005F8DB43524200D1013300BD002923D11D
:10253000002B18D1002A0CD0BC460D4F38667A66A5
:1025400000210023FFE7FFE7FFE77A6F386F674658
:102550007047002801D00748010000B502F09CFB3D
:102560000022002300BD02000B0000200021704764
:10257000000000D0FFFFFFFF002B00D0BFE0130CD6
:1025800028D1002AE7D080B4114F39667A66FFE778
:10259000FFE730B4040C7B6F396F1B0423433B66A9
:1025A0007A66FFE7FFE7FFE7C04684B27B6F3D6FC7
:1025B0001B0423433B667A66FFE7FFE7C046002320
:1025C0002C042D0C7A6F386F00196941B0BC70472C
:1025D000000000D0F0B594460025140E01D112027F
:1025E0000835140F01D112010435940F01D1920066
:1025F0000235D40F01D152000135D40B0134254FDF
:102600007C66254C3C660E0C93B2FFE7FFE7FFE7C4
:102610003C6F6643360C7703BE467343DF0B5B04A7
:10262000C01AB941130C7343DB18C91ACE086643AC
:10263000360CB64493B273431F0F1B01C01AB94145
:10264000130C73431F0B1B05C01AB941860D8F0273
:102650003E436643360C092D24DB520A7243801A2E
:102660007703460A6643360C16235B1BDE40DF40C9
:10267000BF1964466643821B704604350633010069
:10268000D940A840C01900D30131A24206D200238C
:10269000F0BD0000000000D0FFFFFFFF121B013063
:1026A000F3D3F1E709277F1BFE406446A2B27243D1
:1026B000801A00D20139220C7243130C1204821AC0
:1026C00099410B007046043513370100F940A840CA
:1026D000801900D30131002B02D1A2420AD2F0BDF1
:1026E000013000D30131121BFAD2013BF8D1A242D2
:1026F00000D2F0BD013000D30131121BF7E7F0B575
:102700001C0C00D080E00CB400251C0A04D11B0274
:10271000160E3343120208351C0B04D11B01160F91
:102720003343120104359C0B04D19B00960F3343B5
:1027300092000235DC0B02D192185B4101351C007E
:10274000971864410134464F7C66464C3C660E0C3B
:10275000FFE7FFE7FFE7C0463C6F6643360C7703B1
:10276000BE4697B27743C01B00D20139C01B00D2CE
:1027700001399FB27743C91BC91B170C77437E04ED
:10278000FF0B801BB941CE086643360C0C2D33DBA2
:10279000B644120B1F053A431B0B97B27743C01B7D
:1027A00000D201399FB27743C91B170C77433E040F
:1027B0003F0C801BB941860D8F023E43664329279B
:1027C0007F1BFE400C3D7746AF40BF1930BCA2B224
:1027D000ABB272437343801A9941220C7243130CBB
:1027E0001204801A994102000B000137001BA94115
:1027F000F9D2781E0021F0BD0C277F1BFE407746E2
:102800007F0BAF40FF19E0E700245D1C07D0144F99
:102810007D663966FFE7FFE7FFE7FFE73C6F95B2AC
:102820009EB265436643401BB141150C1E0C6543C7
:10283000664336042F0C3E432D04401BB1419942A0
:1028400004D202000B0020000021F0BD01D1904213
:10285000F7D3801A994101349942F2D3F6E7000088
:10286000000000D0FFFFFFFF48404140484018B43F
:102870001B4B5B68FC46019308BD04DF432B001033
:1028800018B4174B1B68FC46019308BD00DF4D2BA5
:1028900000109446134A926F920809D2624618B407
:1028A0000F4BDB68FC46019308BD0CDF052E0010C2
:1028B0000C4AF0B5146E556E576F166F6246FFF7EF
:1028C000EEFF084A1466556657671667F0BD18B4E0
:1028D000034B9B68FC46019308BD08DFA92C001040
:1028E000D8070020000000D0FFB5504042405040C3
:1028F00059404B40594000E0FFB5154F4C00640D66
:1029000003D0BC4204D10C0314D80020090D0905E2
:102910005C00640D03D0BC4204D11C030AD8002221
:102920001B0D1B0501264B4009D44B4003D58B42A0
:1029300000D18242FFBD9942FCD19042FFBD0B43C2
:10294000DB1803431343F5D0C9434918FFBD00000A
:10295000FF07000000B5FFF7CFFF804100BDC04674
:1029600000B5FFF7C9FF01D9002000BD012000BD5F
:1029700000B5FFF7B9FF01D9002000BD012000BD5F
:1029800000B5FFF7B1FF804100BD012040054A00BE
:10299000121804D85A00121801D8002070470120DC
:1029A000704700000021002805D17047C11748403A
:1029B000401AFAD0C90713B5064B1B6898470CBCE0
:1029C000441CA2401005120B0349091B09051943B9
:1029D000114310BDD80800201F04000010B54C00A2
:1029E000620D8023D218DB00D21A5B057E2A10DD2F
:1029F0009E3A13DACC170903490819435242D140D1
:102A0000640001341532202A05DAD04008436043BF
:102A100010BD002010BD0846604310BDC80FC0188F
:102A2000013810BD18B4044B5B6AFC46019308BD25
:102A300024DFB52F00100000D807002070B5132345
:102A40001C78012C12D0012C12DC214B214A9364FA
:102A50002148FFF74FFB214B186070BD1C491D4AF0
:102A60009800815001331F2BF8D9ECE70023FAE7D7
:102A70001B48FFF747FB05001A48FFF743FB0238E6
:102A800003789B007F2B09DD12488022290000F08B
:102A9000A9FB022C08D0022CDADCD6E7124B134A31
:102AA0001348332101F0A2FC124B1A88B5231B02F4
:102AB0009A4209D1104B1A88104B9A4204D1104BFC
:102AC0001A88104B9A42E6D00020FEF775F9C046EE
:102AD000092B0010D80700204C330000D808002034
:102AE0005344000053460000085200101423011004
:102AF0004C52001054380000D838000049460000FD
:102B00009C3800005946000007B56046002800D1F7
:102B100000BE01880A0A0230DF2AFAD1C9B282084F
:102B200004D3028840880004104300E00068024A91
:102B30005050039007BD0000D80700200FB403BC1D
:102B40000CBCF0B50124E407634000E0F0B50C0DC7
:102B5000CF0F661E3605891B640503D3C943404267
:102B600000D30131640D03D0661CF60A07D0E41BC4
:102B700000207F00791C89078912803C24031D0DE9
:102B8000DF0F6E1E36059B1B6D0503D3DB435242E0
:102B900000D301336D0D03D06E1CF60A07D0ED1B78
:102BA00000227F007B1C9B079B12803D2D032F1B67
:102BB000661B58D4A446202E46DA20371400BC40A9
:102BC0001D00BD40F24033412A4380185941CB0FCC
:102BD00005D0C943C043002264425041514162467E
:102BE0004D0D28D10D0D07D100281FD024194041CB
:102BF0004941013A0D0DF9D0640006D3013000D3EC
:102C00000131002C01D140084000013A0BD4941C42
:102C1000E40A04D112051144DB071944F0BDD907B9
:102C2000204B194300E0D9070020F0BD0029DDD179
:102C3000002CDBD1F0BD0132C6074008CD07284388
:102C40004908002EE1D0D9E73C2E29DA203E403752
:102C50001400BC4000D00124F24014431A00BB40D1
:102C60001C43D317ACE7AC46202F08DA203604000B
:102C7000B4400D00B540F84039412843A5E73C2F4A
:102C80000CDA203F40360400B44000D00124F84064
:102C900004430800B1400C43C117EAE710001900D3
:102CA000002494E70000F07FF0B50C0D661E360599
:102CB000891BE60A6405640D02D0651CED0A04D088
:102CC000002001210905803C2403A4461C0D671E39
:102CD0003F05DB1BE70A6405640D02D0651CED0AA5
:102CE00004D0002201231B05803C24037740644468
:102CF00097B484B296B27443070C7E43150C6F43AD
:102D000080B26843361802D3012000043F18300413
:102D1000350C00197D41844688B29AB250430C0CA0
:102D200062431F0C7C438EB27E43921902D301266C
:102D30003604A4191604170C3618674101BC81B279
:102D40009AB25143040C62431B0C5C4380B258435B
:102D5000121802D30120000424181004130C401888
:102D600063412D185E410020474106BC88B293B2F2
:102D700058430C0C6343120C544389B251435B1803
:102D800002D301210904641819041A0C09186241BC
:102D90006D1856410020474118BCF902720D1143CD
:102DA000F0026A0D1043ED020A0D03D16D19404186
:102DB0004941013B124E9B1B7600B3420ED26D007F
:102DC00007D30130002671416646354301D14008E2
:102DD00040001B05C918E4072144F0BD0BDA01339C
:102DE00006D1013004D101314F0D01D04908F2E77D
:102DF000E1070020F0BD013631050020EBE70000BF
:102E0000FF030000F0B51C0D671E3F05DB1BE70A42
:102E10006405640D02D0661CF60A04D0002201236A
:102E20001B05803C2403D0252D060026F6432E6684
:102E30001E096E66CE0FF619B44649004F0D02D03A
:102E40007E1CF60A03D000200021403F3F033E1BBA
:102E5000B600B444013F7F05C91B49082E6F0136F7
:102E600076089C02950D25437543ED137543AD130C
:102E700001356D10F603761B0CB4CC02450D2C43C6
:102E8000A2B2B3B25A43270C7B43350C6F43A4B2B2
:102E90006C431B1902D3012424043F191C041D0C8C
:102EA000A4187D4124196D41009A91B2ACB26143DE
:102EB000170C7C432B0C5F4392B25A43A41802D3E5
:102EC00001221204BF182204230C52187B41019CDA
:102ED0006C431B19520ED9010A434401A01A81B256
:102EE000B2B2514303145A43360C734387B277434B
:102EF000D617D21900277E4136049B191704160CE9
:102F00007F185E417316ED18F3010026803375417A
:102F1000A90F06D16400690AE8055B0A184309D2C3
:102F20002FE00422944480337541A90AA8059B0A26
:102F3000184326D3404149412404009A019B0D00C7
:102F40005543641B4343E41A95B286B27543170C8C
:102F50007E43030C5F4392B25A43B61802D3012258
:102F60001204BF183204330C52197B4152429C4167
:102F7000002C02D40022013051414008CA071043FE
:102F8000490802B06246D7079210084BD218084B86
:102F90009A4203D212058918C919F0BD0020002AEF
:102FA00001DC3900F0BD01331905F5E7FD03000030
:102FB000FE070000002200B5203200F004F80800EF
:102FC00000BD000000220B150AD410B5944600F095
:102FD00031F81414013400DA0021CB17144C2047C7
:102FE0000020002170476244343A0CD40C2A07DADE
:102FF00004009140904052422032D440214310BD01
:10300000D843D94310BD203207D40C4694405242D5
:1030100020321141D040204310BD0800C917203292
:1030200003D452422032104110BD1800190010BDC7
:10303000E72F00100A0DCC0F531E1B05C91A5205AD
:1030400003D3C943404200D30131520D03D0531C76
:10305000DB0A07D0121B00206400611C890789125B
:10306000803A1203014BD21A70470000FF030000A0
:1030700051434343C9188C46110C83B24B4310B4DF
:10308000040C614392B280B2504362431C041B0C97
:10309000001910BC59411304120CC018514161446D
:1030A0007047000070B513231E782A48FFF72AF8EE
:1030B0000500012E11D0012E09DDAB1E1B789B00EF
:1030C0007F2B40DD24488022290000F08BF8234824
:1030D000FFF710F8224B186070BD1F4854222900DA
:1030E00000F080F81F4B1A881F4B9A421CD1A7236F
:1030F0009B011A881D4B9A4216D11D4B1A881D4BF5
:103100009A4211D11C4B1A8894239B019A420BD1ED
:103110001A4B1A881A4B9A4206D11A4B1A681A4B44
:103120009A4201D1152307E01848FDF745FE184CD7
:10313000094A99008C5001331F2BF8D9144B064AC9
:103140001362D361B7E7134B134A1448422101F0CD
:103150004DF9C04653460000DC0800204C33000007
:10316000D8080020EE290000C40F0000C20D0000A6
:10317000962B0000C0B50000182B0000CC2A0000E0
:1031800010B50000FC2C000051ED8764A85300101E
:10319000A1310010A452001028230110D8520010B1
:1031A00007B56046002800D100BE01880A0A023037
:1031B000DF2AFAD1C9B2820804D302884088000409
:1031C000104300E00068024A5050039007BD000021
:1031D000DC08002001480421014B1847500300205F
:1031E00015210010014B5B681847000050030020B8
:1031F000704710B5002802D00B684968984710BD89
:103200000100002007E083001B185B00501C0860D1
:103210001078C01830380A681378303BDBB2092BBD
:10322000F1D97047F0B5DE4657464E464546E0B503
:1032300083B093461F000C9B9A460D9C0E9B9946AB
:103240000F9B9B0717D0B8460F00060022E0551CC5
:103250004B4641462020B84701342A00B442F6D3F9
:103260003D004F465C46019B9B46B1464646B846EC
:1032700037002E000EE00192A34688464E46B9461E
:103280000700EBE7013C551C5346185D43463900E7
:10329000B0472A00002CF5D135003E0047460F9B71
:1032A0009B0711D4100003B0F0BCBB46B246A94640
:1032B000A046F0BD541C4B4641462020B847220092
:1032C000531BB342F6D3EDE7B0464E46B9462F0046
:1032D0005D46F5E7F0B5CE46474680B585B09446E5
:1032E00098460C9D0D9C0EAB1B789946109A119B2D
:1032F000129EB7071CD4002B0CD0F7070AD54F46F7
:10330000002F02D10C37374204D0013B02E03027B6
:103310002F550134944201D21F2CF8D9F70707D555
:103320009C4205D21F2C03D830272F550134F5E7D6
:10333000F70612D5770505D4002C03D0944221D08E
:103340009C421FD00F9A102A2FD00F9A022A36D0F3
:103350001F2C0AD830222A5501341F2C05D84A4682
:10336000002A32D02D222A5501340396029301946B
:10337000009543466246FFF755FF05B0C0BCB9460D
:10338000B046F0BD621E012C17D00F9F102F0BD03E
:1033900014000F9A102AD8D1B206D6D51F2CD4D833
:1033A00058222A550134D3E7023CB206F1D41F2C2F
:1033B000EFD878222A550134CAE71400C2E71F2C3F
:1033C000D3D860322A550134C2E7720703D52B22C5
:1033D0002A550134C9E73207C7D520222A550134BE
:1033E000C3E7F0B5DE4657464E464546E0B593B0D6
:1033F00081468A46089209931CAB10CB1B789B46EA
:103400001E9D219B9846002C03D1102342469A43CF
:1034100090468023DB0046461E4042461A4218D0A2
:10342000002C22D0002614E0424692061BD54121F2
:10343000C918C9B20A39C9B2771C0AAB9955290013
:103440002000FEF7D9FFAC4210D31F2F0ED83E004C
:10345000040029002000FEF7CFFFCBB2092BE3D8F0
:103460003033D9B2E8E76121E2E72700434606930B
:10347000209B05931F9B049303955B460293019742
:103480000AAB0093099B089A51464846FFF722FF72
:1034900013B0F0BCBB46B246A946A046F0BDF0B59D
:1034A000DE4657464E464546E0B597B00A900B912A
:1034B0000C929A46209B9946219F22AA13789B46FC
:1034C000249B0993259C289B98464A463A4302D15F
:1034D0001032934398468022D20045461540434619
:1034E00013420AD04A463A4341D000252E005346A3
:1034F0000D934D46099B9A4621E02E0053460D93AD
:103500004D46099B9A461AE04246920623D541222F
:10351000D218D2B20A3AD2B2731C99460EAB9A555F
:103520005246230028003900FEF7A4FFBC4220D8F1
:1035300013D04B461F2B16D84E4605000F0052469F
:10354000230028003900FEF795FFD3B2092BDBD802
:103550003033DAB2E0E76122DAE7AA45E9D94E462C
:103560000D9B9A4608E04E460D9B9A4604E00026C5
:1035700002E04E460D9B9A4643460693279B0593D1
:10358000269B0493099B03935B46029301960EAB23
:10359000009353460C9A0B990A98FFF79BFE17B0BD
:1035A000F0BCBB46B246A946A046F0BDF0B5DE462B
:1035B00057464E464546E0B591B0804689460C9246
:1035C0009A461A9C1B9D22002B0020002900FFF721
:1035D000DCF9002800D0F2E001225242D54B200055
:1035E0002900FFF7CDF9002800D0E8E0012252427F
:1035F000D14B20002900FFF7ADF9002800D0DEE014
:103600000022002320002900FFF7A4F9002800D0A1
:10361000EAE0069407958023DB001E9A1A400D927B
:103620001E9A1A4201D106231C930698079902009C
:103630000B000892099303000A00024300D1DFE067
:10364000080D4005400DBD4EB4466044079E320350
:10365000120B1E00BA4B13431F00FFF7A7F9B94A1C
:10366000B94BFFF734F9B94AB94BFFF709F908909C
:1036700009910022B74B30003900FFF7F8F8B64A3D
:10368000B64BFFF724F902000B0008980999FFF7E1
:10369000F7F8FFF7A3F98346FFF788F906000F0054
:1036A000AF4AB04BFFF713F90022AF4BFFF7E8F832
:1036B000FFF794F90890AD4AAD4B30003900FFF7A1
:1036C00006F906000F000898FFF770F9A94AAA4BFF
:1036D000FFF7FDF802000B0030003900FFF7C7F8D4
:1036E00006000F0002000B00FFF7F1F80A900B91A3
:1036F000089BA24A94466344002100220891099243
:103700001B0509930023089332003B003000390069
:10371000FFF7B6F80E900F9132003B000020802199
:10372000C905FFF7A4F806000F000022944B0A9881
:103730000B99FFF7AEF80022924BFFF7A1F80200B9
:103740000B000A980B99FFF7A4F800228E4BFFF7A5
:1037500097F802000B000A980B99FFF79AF80200FD
:103760000B0030003900FFF78BF802000B000E98B9
:103770000F99FFF78EF80022714BFFF781F8089A36
:10378000099BFFF7A4F806000F0008960997069A10
:10379000079BFFF7F5F800280BD001235B429C46FE
:1037A000E3440022774B30003900FFF772F80890AD
:1037B00009915B466333C62B45D8042623E01E9B44
:1037C00004931D9B03931C9B029300940195534605
:1037D0000C9A4946404600F0FBF811B0F0BCBB46DD
:1037E000B246A946A046F0BD0021002206910792EC
:1037F000069480231B069C46AC44634607930AE765
:1038000000239B4604261E9B1B0528D5089A099B6E
:10381000190011430FD05D4A5D4B06980799FFF7D9
:10382000A7F800287AD000225A4B06980799FFF78C
:1038300091F8002872D01C9B5B4506DD5A469B1A06
:10384000013B1C9303E00526DDE700231C93802346
:10385000DB001E9A1A431E92002600239B461D9BE6
:103860009E4265D29F1B02231E9A1A400A921E9AFC
:10387000134202D0002E00D000275B46002B07D059
:10388000089A099B06980799FFF703F80690079195
:103890000022002320002900FFF75CF8002800D058
:1038A0007CE03D4B1E9A1340049303971C9B0293AC
:1038B000069B079C0093019453460C9A4946404648
:1038C00000F086F8002E00D187E71E9B9B0671D57D
:1038D0004525441C5346020049462800C0475A4625
:1038E000D317D2185A4005230593013E04960023AE
:1038F00003930A3302935B46DB0F01930092534616
:10390000220049464046FFF76CFD0A9B002B00D180
:1039100063E7020047460C9E1D9D53E01C9B002B55
:103920009DD00D9B002B9AD01C9B013B1C9396E7CE
:10393000002798E7FFFFEF7FFFFFEFFF01FCFFFF8E
:103940000000F03FFB799F501344D33FB3C8608B16
:10395000288AC63F0000F83F61436F63A787D23FC4
:1039600071A379094F930A400000E03F1655B5BB9B
:10397000B16B0240EF39FAFE422EE63FFF03000032
:1039800000002C4000002440000018402D431CEB98
:10399000E2361A3F80842E41FFF7FFFF069C079D09
:1039A0002200290080200006844661440B00069214
:1039B000079376E765258CE7541C5346494620203B
:1039C000B8472200931BAB42F6D3100005E7C04670
:1039D000F0B5DE4657464E464546E0B595B00690F2
:1039E000079193469946209F1E9A1F9B100019002D
:1039F000FEF7CBFF002831D101225242BC4B1E986A
:103A00001F99FEF7A7FF002837D101225242B94B78
:103A10001E981F99FEF7B4FF00283DD10022B64B37
:103A20001E981F99FEF7ACFF00284AD10022B34B25
:103A30001E981F99FEF78EFF002842D10022002316
:103A40001E981F99FEF786FF00284AD1002398464A
:103A5000229B5B0500D4B0E0002452E0229B03933C
:103A6000219B029303230193A54B00934B465A4697
:103A700007990698FFF7D6FB08E1229B0393219B49
:103A80000293042301939F4B00934B465A46079998
:103A90000698FFF7C7FBF9E0229B5B070ED59A4B10
:103AA00004222299039121990291019200934B469D
:103AB0005A4607990698FFF7B5FBE7E0934B0322B8
:103AC000EFE7229B0493219B039302971E9B1F9C6D
:103AD000009301944B465A4607990698FFF766FDF6
:103AE000D4E01E9A1F9B00200021FEF7C0FE1E900E
:103AF0001F9101239846ABE70CAB30221A55013FCA
:103B000001341F2C01D8092FF6D81E981F99FEF7F3
:103B100065FF0500FEF74AFF02000B001E981F9983
:103B2000FEF7A5FE7A4BFA009B181A685B680A92AA
:103B30000B93FEF7CCFE08900991FEF773FF060089
:103B4000FEF730FF02000B0008980999FEF78FFE80
:103B50000890099100226F4BFEF712FF00282ED02B
:103B600001363000FEF71EFF02000B000A980B9989
:103B7000FEF7F6FE002801D001350026002F2CD1DB
:103B80002800FEF713FF02000B001E981F99FEF796
:103B90006EFE06000F0000225E4BFEF7DBFE0028E3
:103BA00046D100225B4B30003900FEF7E9FE0028C9
:103BB0003ED1EB073CD501353AE006274CE7002221
:103BC000544B08980999FEF7C5FE0028D6D1002E5F
:103BD00001D0F307D2D50136D0E7AA461F2C11D861
:103BE000013F0A213000FEF707FC651C30310CABA9
:103BF00019550A213000FEF7FFFB092E0ED90600E9
:103C00002C00EBE755461F2C0CD87B1E002F09D04B
:103C10000CAA302111551F000134F4E72B00554642
:103C20001C00F0E71F2C03D80CAB2E221A550134D0
:103C30001F2C10D80A212800FEF7B6FB661C303175
:103C40000CAB19550A212800FEF7AEFB051E01D06A
:103C50003400EDE734000323229A1340012B1CD0DB
:103C60001F2C06D84346002B32D00CAB2D221A5500
:103C70000134229B0393219B029301940CAB00938C
:103C80004B465A4607990698FFF7CCFA15B0F0BC98
:103C9000BB46B246A946A046F0BD219B002B13D0DF
:103CA0004346002B02D10C3313420FD0219B013B22
:103CB0002193190003E00CAB30221A5501348C42D9
:103CC000CED21F2CF7D9CBE72199F8E72199F6E757
:103CD000229B5B0704D50CAB2B221A550134C8E795
:103CE000229B1B07C5D50CAB20221A550134C0E717
:103CF000FFFFEFFFFFFFEF7F65CDCD4165CDCDC16C
:103D00009053001094530010845300108C530010F3
:103D1000302501100000E03FF0B5DE4657464E4624
:103D20004546E0B593B007008A46934611930029B3
:103D300000D12CE3002508E06C1C5B462A005146AC
:103D4000B847119B013311932500119B1878002867
:103D500000D11EE32528EFD1013311930023180071
:103D600020E00123184301321192012418E00223BC
:103D7000184301321192012412E004231843013246
:103D8000119201240CE008231843013211920124FE
:103D900006E01023184301321192012400E00024B0
:103DA000002C09D0119A1378203BD9B21029F6D8EB
:103DB0008B00C449CB589F468146119B1A7813004B
:103DC000303BDBB2092B10D92A2A13D00B94119B5C
:103DD0001A782E2A20D0119A1378683BD9B212296A
:103DE00065D88B00B849CB589F4611A8FFF708FA51
:103DF0000B90ECE71C9B1A1D1C921B68002B04DB2C
:103E00000B93119B01331193E1E70222010011434F
:103E100089465B420B93F4E78022D2004946114366
:103E200089465A1C11925A781300303BDBB2092B99
:103E30000BD92A2ACFD11C9B1A1D1C921C68002C5E
:103E400008DB119B01331193C5E711A8FFF7D8F9DF
:103E50000400C0E70024F4E780235B0049460B43DD
:103E6000511C119151786C2901D099461FE0C02353
:103E70009B004946194389460232119217E080237C
:103E800049460B43511C11915178682901D099463C
:103E90000DE0C0234946194389460232119206E0DB
:103EA00080235B0049461943894601321192119BD8
:103EB000187867281CD8252800D25EE20300253B2D
:103EC000DAB2422A00D958E29300804AD3589F467A
:103ED00080239B0049461943894601321192E6E747
:103EE00080235B0049461943894601321192DEE77F
:103EF000782800D941E2692800D23EE20200693AFE
:103F0000D2B201239340724A134210D11A0600D54F
:103F10000CE25B0500D430E21C9B1A1D1C921E684B
:103F2000002C00D0BAE101225242330096E16F2802
:103F300042D005D8582841D0622803D1022606E095
:103F400078283DD010234A469A4391460A2658289D
:103F500038D0692805D0642803D00C224B469343FF
:103F600099464B465A0502D5012293439946692842
:103F70002DD064282BD04B469A0500D5AAE0DA054F
:103F800000D5C2E05A0600D4D3E01C9A111D1C9142
:103F90001168FF220A404B4605930B9B0493039440
:103FA00002960023019300925B462A005146380096
:103FB000FFF717FA05002AE00826C8E71026C6E72B
:103FC0001026C4E720224B4613439946C1E74B46CF
:103FD0009A0520D4DA0551D45A0666D51C9A111DCB
:103FE0001C911168FF220A40D017111841404B461E
:103FF00005930B9B049303940296D20F01920091B8
:104000005B462A0051463800FFF7EBF90500119B8B
:104010000133119399E61C9A073207218A43110054
:1040200008311C91116853689C46DB170C930D9363
:104030000C9A0D9B100048400E900D9B61464B4022
:104040000F930E980F990C9A0D9B801A99410E9020
:104050000F914B4608930B9B0793069404960023FD
:1040600005936346DA0F0292009001915B462A00A5
:1040700051463800FFF713FA0500C8E71C9A111DD6
:104080001C911268D0171118414005930B9B0493A3
:1040900003940296D20F019200915B462A0051468A
:1040A0003800FFF79EF90500B1E71A0605D51C9AFE
:1040B000111D1C910023D25E96E71C9A111D1C91C4
:1040C000126891E790230110D423011020240110DD
:1040D000419000001C9A073207218A4311000831E1
:1040E0001C9108930B9B0793069404960023059359
:1040F000029353681268009201935B462A0051466E
:104100003800FFF7CCF9050081E71C9A111D1C91BE
:1041100005930B9B04930394029600230193136869
:1041200000935B462A0051463800FFF75AF9050014
:104130006DE71A0606D51C9A111D1C91126812040F
:10414000120C28E71C9A111D1C91126823E74628BF
:104150001AD01C9B0733072293431A0008321C9283
:104160004A4604920B9A039202941A685B68009282
:1041700001935B462A0051463800FFF729FC0500F1
:10418000119B01331193E0E520234A461A439146DF
:10419000DFE7672801D0472804D180231B014A4666
:1041A0001A439146452801D0472803D120234A4687
:1041B0001A4391461C9B0733072293431A00083287
:1041C0001C924A4604920B9A039202941A685B6806
:1041D000009201935B462A0051463800FFF7E6F94A
:1041E0000500119B01331193AFE502234E461E409B
:1041F0004A4613421ED001241C9B1A1D1C926A1CA5
:10420000904618785B462A005146B847002E14D1D4
:10421000119B01331193454697E5551C5B4651466A
:104220002020B84723002A005C1C0B999942F4D83F
:104230001500E1E701232A00F6E7424606E0561C96
:104240005B4651462020B8472C003200651C0B9B72
:10425000A342F4D89046DBE701330A00197800291D
:1042600002D0511E002AF7D19B1B8022D200494662
:10427000114088464946114202D0A34200D923008A
:10428000022249461140109149460A4208D02A00AC
:10429000250099463B004746984626E0220044E622
:1042A000A1462A005146B2460E0006E0551C5B4668
:1042B00031002020B84723002A005C1C0B9999424A
:1042C000F4D8150022004C46330056469A469146D3
:1042D0002A0025003B004746984606E01D000136AF
:1042E000541C5B465146C04722003078002804D059
:1042F000002FF4D06B1E002DF0D115004B46474621
:10430000109A002A03D1119B013311931DE50B9ED6
:104310002A0006E0551C5B4651462020B847230082
:104320002A005C1C9E42F5D81500ECE721234A4682
:104330001A4313001C9A111D1C911268059308233F
:1043400004930394083302930023019300925B4685
:104350002A0051463800FFF744F80500119B01334D
:104360001193F2E46C1C5B462A0051462520B847A5
:10437000119B013311932500E7E46C1C5B462A0076
:104380005146B847119B013311932500DDE40A4FD4
:10439000D0E45D450DD35B465A1E5B465146002076
:1043A000B847280013B0F0BCBB46B246A946A046A9
:1043B000F0BD2A00F1E7C046F131001010B584B01D
:1043C0000C0002A902904C600124044800931300E1
:1043D0006242FFF7A1FC04B010BDC046F3310010EB
:1043E00000BEFDE710B5FFF7FBFF000030B583B05E
:1043F0000D001900002A0BD0074B084C01920093C6
:104400002B000200200000F061F90120FFF7E8FF17
:10441000034B1A00F1E7C0469C530010AC53001048
:10442000A853001010B5EFF30583002B00D000BE99
:10443000FDF7C2FE034C01E008CC9847024B9C42BA
:10444000FAD310BD044D00100C4D001010B5030040
:10445000080011001B68984710BD0000F8B5070060
:104460000D001600437D002B02D0002400200CE03C
:1044700003681100280098472DE03B7D10E03B6861
:10448000154802219847601C0134B44214DA002C0C
:10449000F3DD2B19013B1B780D3B5A425341DBB234
:1044A0002A5D0A2AF0D1002BEED1A042E7DA3B6860
:1044B000211A28189847E2E7B04203DA3B68311A1C
:1044C00028189847002E06DDAD19013D2B780D3BCD
:1044D0005A4253413B75F8BD8025011070B5050067
:1044E0000368002B16D00C4B1C6805E0290004C99A
:1044F0002000FFF7B3FF2469002C09D02368002BAC
:10450000F9D0064B1B68002BF0D0A342F3D1EDE7A6
:1045100000232B6070BDC0461C0600202006002032
:1045200070B505000C000B68802B05D023685A1C61
:104530002260E418257170BD0800FFF7CFFFF5E792
:1045400010B5FDF757FB074A002312184B41002B0B
:1045500003DB054800F0B0FB10BD01225242034BC3
:10456000F7E7C04640420F0080030020FFFFFF7FB7
:1045700010B5024800F088FB10BDC0468003002043
:10458000F0B5CE46474680B583B006000D00904694
:104590001C00FFF7D5FF81466B1C05D0002C08D00E
:1045A000184F194B1C6807E0300000F03BFB05007A
:1045B000F4E7164FF5E72469002C17D02368002B89
:1045C000F9D0134B1B68002B01D0A342F3D12A0072
:1045D00031002000B8474346002BECD06B46D91D74
:1045E0000A230B7001222000B847E4E74B46002B5A
:1045F00005D1280003B0C0BCB946B046F0BDFFF7F6
:10460000B7FFF6E75D4400101C0600204D44001083
:10461000200600200A4A136802E01A0010321B69C3
:10462000002B09D013688342F7D1002907D1036911
:1046300013600023036102E0002900D0106070477E
:104640001C06002010B5064B1C6800E02469002CF5
:1046500004D06368002BF9D09847F7E710BDC04637
:104660001C06002010B500F043F9012010BD70B504
:10467000050000F0D7FA0400012301220100280000
:10468000FFF77EFFFFF7DEFF200070BDF0B5A3B09F
:1046900004000E00FFF754FF050001AF0023019353
:1046A0000948330022003900FFF788FE0400380073
:1046B000FFF714FFFFF7C6FF002D02D1200023B043
:1046C000F0BDFFF755FFF9E7214500100FB400B525
:1046D00083B004A901C90191FFF7D8FF03B008BC5A
:1046E00004B0184710B582B00C00144BC3185A42DE
:1046F0005341134A5B009B5E8B4204D06B46DA1D2C
:104700001470002115E06B46DA1D0D231370002193
:104710000029F3D183699B06FCD41378036001312F
:104720000132F5E783699B06FCD4137803600131FD
:1047300001320029F6D002B010BDC0460080FCBF97
:10474000E009002082B000226B46D91D06E0836993
:10475000DB06FCD403680B7001320131002AF6D06D
:104760006B46D87902B0704770B506000D00002482
:1047700005E0315D034B1868FFF7B4FF0134AC422C
:10478000F7DB70BDE4090020F8B506000D00002736
:1047900005E07C1CF719FFF7D5FF38702700AF4202
:1047A00004DA0D4A10688269D206F2D50B4A126803
:1047B000002A0AD0084A126850219163506B1839B8
:1047C0000140074B9C4662441160002F01D0380025
:1047D000F8BD033FFBE7C046E4090020D4050020F4
:1047E0003410000010B5064B1B68002B06D0054A9C
:1047F000126800219163044A1068984710BDC046B2
:10480000D4050020E4090020D8050020024B1A68D6
:1048100093691B07FCD47047E409002070B51D4B59
:104820001B681D4A934207D0142400281ED01B4B3E
:104830001B68002B02D070BD1524F6E7174B1860DB
:10484000174B196017492000FCF7F2FB01212000EB
:10485000FCF7DCFB0F4B1B6850229A63596B183A2C
:104860000A4011498C4663441A60E4E70B4A126817
:10487000002AE0D000259D6300212000FCF7C6FB44
:1048800008492000FCF7FEFB044B1D60044B1D6033
:10489000D1E7C046E409002000800340D405002091
:1048A000D8050020E54700103410000070B50D0059
:1048B0001C000D4B1860002A0BDA002C0EDA0A4B94
:1048C00018682900FDF73EFA08480121FFF7A2FE0B
:1048D00070BD02211000FCF71FFAEEE70221200054
:1048E000FCF71AFAEBE7C046E40900206003002059
:1048F00010B5074B1B78074B1B78074B1B78E12142
:104900000123002249020548FFF7D0FF10BDC04631
:104910000426011000260110FC2501100040034070
:10492000002300E00133022B08D8054A990088587B
:10493000044A8A589042F5D0002000E001207047D8
:10494000C0000020A025011010B5FFF7E9FF0028E6
:1049500011D1002305E00C4A990088580B4A885071
:104960000133022BF7D90A480021FDF74BF9074B19
:1049700000221A6010BD054B0021196001200A00B9
:104980004042FDF7E3FBC046A0250110C000002017
:10499000400D0300074B98420AD0112301229A4090
:1049A000054B1A60054B1B6811009943FAD17047FB
:1049B0001023F3E700C0034000F0004008C00040AF
:1049C000F8B5DE4657464E464546E0B581460E00F0
:1049D0000620FDF769FA80464B465A6802231A40C2
:1049E000934604224A449246214A4A4413600224D0
:1049F00000E00234FE2C1AD80025200232000023E9
:104A00000021FEF735FB002903D1A942F1D1404531
:104A1000EFD980277F00012F0CD97D1E210069432B
:104A20004046FDF7E9FCB04204D82F00F3E78027A9
:104A30007F00F0E74B461C617A1E12021B685A4049
:104A4000FF231B021A4080235B014B441A60802322
:104A50009B0153445A461A60390061434046FDF7B2
:104A6000CBFCF0BCBB46B246A946A046F8BDC0464A
:104A70000430000070B504000D00154B984224D09E
:104A8000112201239340134A13602000FFF782FF95
:104A900029002000FFF794FF626802231A400E49A4
:104AA00061180B60256807214D40C83129408025D9
:104AB0006D0165192960094961180A60084A944620
:104AC0006444032222600B6070BD1022D9E7C04607
:104AD00000C0034000E0004004300000042000005B
:104AE0002420000003BD10B50400FDF76DFBA047B6
:104AF00010BDD0231B061B6D9B07FAD5D0231B06C8
:104B0000586540BF704700E020BFD0231B061B6DD7
:104B1000DB07F9D5D0231B06986D7047F0B587B039
:104B200004000D0017000F20FCF756FA06000021C4
:104B30000F20FCF76BFA00220092019201320292E0
:104B400003970495059400250CE0D0231B069B6D6C
:104B5000D0231B061B6DDB07F7D440BF07E00135F0
:104B6000052D0DD8AB006A469C58002CF0D02000D3
:104B7000FFF7BFFFFFF7C7FF8442F0D00025EFE744
:104B800031000F20FCF742FA07B0F0BD10B50C0061
:104B9000930711D103239A438B1819000C39094A42
:104BA000926808601800083804600748043B1860E1
:104BB0000648FFF7B3FF10BD054B064A06488E2195
:104BC000FFF714FC00ED00E0E74A0010E54A001092
:104BD00098540010B82501104854001010B5064B29
:104BE000064A934205D3190080221201FFF7CEFF37
:104BF00010BD01214942F7E700080420000004200D
:104C000010B582B00100054C054B00930B23002228
:104C10002000FCF718F902B010BDC046EA090020D8
:104C2000B454001010B583070AD00300032102E03A
:104C300001330B4205D01A78002AF9D1181A10BD99
:104C4000030019680C4A0D4C8A188A4322420FD17E
:104C50005968094A04338A188A43224208D159689C
:104C6000054A04338A188A432242F1D000E0013316
:104C70001A78002AFBD1E1E7FFFEFEFE80808080EB
:104C8000F8B5C0460000000001B40248844601BCEB
:104C9000604700BFDD01002001B40248844601BC2A
:104CA000604700BF2902002001B40248844601BCCD
:104CB000604700BF2902002001B40248844601BCBD
:104CC000604700BFA9010020D92100100522001073
:104CD00099230010D53100103D2A0010A530001096
:104CE000CD22001021220010412200105522001078
:104CF0004D1300105D220010451B0010B52100105F
:0C4D0000050F0010B1020010494900101E
:104D100053797374656D20636C6F636B206F6620CD
:104D20002575206B487A2063616E6E6F7420626512
:104D30002065786163746C79206163686965766564
:104D400064000000636861696E5F746F203C3D2001
:104D50004E554D5F444D415F4348414E4E454C5387
:104D600000000000433A2F55736572732F616D6523
:104D700072692F2E7069636F2D73646B2F73646B70
:104D80002F322E322E302F7372632F7270325F6388
:104D90006F6D6D6F6E2F68617264776172655F64AD
:104DA0006D612F696E636C7564652F6861726477DD
:104DB0006172652F646D612E680000006472657118
:104DC000203C3D20445245515F464F524345000030
:104DD0000A2A2A2A2050414E4943202A2A2A0A0018
:104DE0000A00000030783163203D3D20282A696E9A
:104DF0007374293E3E31317500000000433A2F554F
:104E0000736572732F616D6572692F2E7069636FA0
:104E10002D73646B2F73646B2F322E322E302F73F1
:104E200072632F7270325F636F6D6D6F6E2F68618A
:104E30007264776172655F6972712F6972712E6336
:104E40000000000064656C7461203E3D202D32300E
:104E500034382026262064656C7461203C3D203265
:104E600030343620262620212864656C7461202683
:104E700020312900212864656C7461203E3E203178
:104E80003175290063757272656E74203D3D205F37
:104E90005F756E68616E646C65645F757365725F83
:104EA000697271207C7C2063757272656E74203D1E
:104EB0003D2068616E646C65720000002165786356
:104EC000657074696F6E207C7C2065786365707492
:104ED000696F6E203D3D206E756D202B205654412C
:104EE000424C455F46495253545F495251000000BD
:104EF00066616C736500000069735F736861726559
:104F0000645F6972715F7261775F68616E646C651E
:104F10007228736C6F745F68616E646C65722900CF
:104F2000657863657074696F6E000000666F756EFA
:104F30006400000031203D3D202875696E74707456
:104F4000725F74296C2D3E7370696E5F6C6F636B5A
:104F500000000000433A2F55736572732F616D6531
:104F600072692F2E7069636F2D73646B2F73646B7E
:104F70002F322E322E302F7372632F636F6D6D6F51
:104F80006E2F7069636F5F73796E632F6D757465D3
:104F9000782E6300746F74616C0000006D74782D5E
:104FA0003E636F72652E7370696E5F6C6F636B002A
:104FB0006C6F636B5F69735F6F776E65725F696457
:104FC0005F76616C6964286D74782D3E6F776E65CD
:104FD000722900006D74782D3E656E7465725F6392
:104FE0006F756E7400000000706F6F6C2D3E7469F9
:104FF0006D65725F616C61726D5F6E756D203D3DB8
:105000002074696D65725F616C61726D5F6E756D44
:1050100000000000433A2F55736572732F616D6570
:1050200072692F2E7069636F2D73646B2F73646BBD
:105030002F322E322E302F7372632F636F6D6D6F90
:105040006E2F7069636F5F74696D652F74696D652C
:105050002E63000064656661756C745F616C6172DB
:105060006D5F706F6F6C5F696E697469616C697A8E
:105070006564282900000000417474656D707465D2
:105080006420746F20736C65657020696E73696449
:1050900065206F6620616E20657863657074696F46
:1050A0006E2068616E646C65723B2075736520626A
:1050B0007573795F7761697420696620796F7520EF
:1050C0006D757374000000004861726477617265E9
:1050D00020616C61726D20256420616C7265616471
:1050E0007920636C61696D656400000076636F5FB1
:1050F00066726571203E3D205049434F5F504C4CD5
:105100005F56434F5F4D494E5F465245515F485A87
:105110002026262076636F5F66726571203C3D20F5
:105120005049434F5F504C4C5F56434F5F4D415881
:105130005F465245515F485A00000000433A2F55E0
:10514000736572732F616D6572692F2E7069636F5D
:105150002D73646B2F73646B2F322E322E302F73AE
:1051600072632F7270325F636F6D6D6F6E2F686147
:105170007264776172655F706C6C2F706C6C2E63FB
:10518000000000006662646976203E3D20313620D2
:105190002626206662646976203C3D20333230004A
:1051A00028706F73745F64697631203E3D20312032
:1051B000262620706F73745F64697631203C3D2031
:1051C00037292026262028706F73745F6469763231
:1051D000203E3D203120262620706F73745F646965
:1051E0007632203C3D203729000000007265665F62
:1051F00066726571203C3D202876636F5F6672653C
:1052000071202F20313629002A282875696E7438BC
:105210005F74202A29282828766F6964202A297239
:105220006F6D5F7461626C655F666C6F6174292D70
:10523000322929202A2034203E3D2053465F544104
:10524000424C455F56325F53495A4500433A2F5509
:10525000736572732F616D6572692F2E7069636F4C
:105260002D73646B2F73646B2F322E322E302F739D
:1052700072632F7270325F636F6D6D6F6E2F706926
:10528000636F5F646F75626C652F646F75626C65C8
:105290005F696E69745F726F6D5F72703230343047
:1052A0002E6300002A282875696E74385F74202ADE
:1052B00029726F6D5F7461626C652D3229202A201E
:1052C00034203E3D2053465F5441424C455F5632A8
:1052D0005F53495A45000000433A2F557365727376
:1052E0002F616D6572692F2E7069636F2D73646B0A
:1052F0002F73646B2F322E322E302F7372632F7206
:1053000070325F636F6D6D6F6E2F7069636F5F6674
:105310006C6F61742F666C6F61745F696E69745F26
:10532000726F6D5F7270323034302E630000000097
:105330004465627567000000626F6F74325F773298
:105340003571303830000000322E322E300000002F
:105350007069636F00000000417564696F5F4265AA
:1053600065705F53796E74685F53696E676C655FD3
:10537000436F7265000000005365702031342032A5
:1053800030323500666E692B00000000666E6900E1
:105390006E616E00666E692D000000002C2066753F
:1053A0006E6374696F6E3A2000000000617373656C
:1053B0007274696F6E2022257322206661696C65A4
:1053C000643A2066696C6520222573222C206C6962
:1053D0006E65202564257325730A000055415254DB
:1053E00020737464696E00005541525420737464D4
:1053F0006F7574005541525420737464696E202F88
:10540000207374646F757400646F75626C652072CC
:1054100065736574202D3E20424F4F5453454C0018
:105420006D757465785F69735F696E697469616CC5
:10543000697A656428266C6F636B6F75745F6D7530
:105440007465782900000000433A2F557365727324
:105450002F616D6572692F2E7069636F2D73646B98
:105460002F73646B2F322E322E302F7372632F7294
:1054700070325F636F6D6D6F6E2F7069636F5F6DFC
:10548000756C7469636F72652F6D756C7469636F89
:1054900072652E63000000002128737461636B5FE6
:1054A00073697A655F627974657320262033752984
:1054B000000000004E6F20444D41206368616E6E15
:1054C000656C732061726520617661696C61626CE4
:1054D000650000006368616E6E656C5F636F6E6689
:1054E00069675F7365745F64726571006368616E9C
:1054F0006E656C5F636F6E6669675F7365745F632B
:105500006861696E5F746F00A3703D0AAE703D0AFA
:10551000CC703D0AFF703D0A46713D0AA1713D0AFB
:1055200011723D0A95723D0A2E733D0ADB733D0AE6
:105530009C743D0A71753D0A5B763D0A59773D0AB8
:105540006C783D0A93793D0ACE7A3D0A1D7C3D0A6E
:10555000817D3D0AF97E3D0A86803D0A26823D0A0C
:10556000DB833D0AA5853D0A83873D0A75893D0A8F
:105570007B8B3D0A968D3D0AC58F3D0A09923D0AF7
:1055800060943D0ACC963D0A4D993D0AE29B3D0A46
:105590008B9E3D0A48A13D0A1AA43D0A00A73D0A78
:1055A000FAA93D0A09AD3D0A2CB03D0A64B33D0A93
:1055B000AFB63D0A10BA3D0A84BD3D0A0DC13D0A91
:1055C000AAC43D0A5BC83D0A21CC3D0AFBCF3D0A77
:1055D000E9D33D0AECD73D0A03DC3D0A2FE03D0A42
:1055E0006EE43D0AC2E83D0A2BED3D0AA7F13D0AF3
:1055F00038F63D0ADEFA3D0A98FF3D0A66043E0A87
:1056000048093E0A3F0E3E0A4A133E0A69183E0AFE
:105610009D1D3E0AE5223E0A41283E0AB22D3E0A61
:1056200037333E0AD0383E0A7E3E3E0A40443E0AA8
:10563000164A3E0A01503E0A00563E0A135C3E0AD4
:105640003B623E0A77683E0AC76E3E0A2C753E0AE8
:10565000A57B3E0A32823E0AD4883E0A8A8F3E0AE1
:1056600054963E0A339D3E0A26A43E0A2DAB3E0ABE
:1056700049B23E0A79B93E0ABDC03E0A16C83E0A82
:1056800083CF3E0A04D73E0A9ADE3E0A43E63E0A2C
:1056900002EE3E0AD4F53E0ABBFD3E0AB7053F0ABC
:1056A000C60D3F0AEA153F0A231E3F0A6F263F0A2E
:1056B000D02E3F0A45373F0ACF3F3F0A6D483F0A89
:1056C0001F513F0AE6593F0AC1623F0AB06B3F0AC9
:1056D000B4743F0ACB7D3F0AF8863F0A38903F0AF0
:1056E0008D993F0AF6A23F0A74AC3F0A06B63F0AFC
:1056F000ACBF3F0A67C93F0A36D33F0A19DD3F0AEC
:1057000010E73F0A1CF13F0A3DFB3F0A7105400AC2
:10571000BA0F400A171A400A8924400A0F2F400A7C
:10572000A939400A5744400A1A4F400AF259400A20
:10573000DD64400ADD6F400AF17A400A1A86400AA9
:105740005791400AA89C400A0DA8400A87B3400A16
:1057500015BF400AB8CA400A6FD6400A3AE2400A6A
:1057600019EE400A0DFA400A1506410A3212410AA2
:10577000631E410AA82A410A0137410A6F43410AC0
:10578000F14F410A885C410A3369410AF275410AC6
:10579000C582410AAD8F410AA99C410ABAA9410AB2
:1057A000DFB6410A18C4410A65D1410AC7DE410A81
:1057B0003DEC410AC8F9410A6707420A1A15420A34
:1057C000E122420ABD30420AAD3E420AB24C420AD0
:1057D000CA5A420AF768420A3977420A8F85420A52
:1057E000F993420A77A2420A0AB1420AB1BF420AB9
:1057F0006DCE420A3CDD420A20EC420A19FB420A05
:10580000260A430A4719430A7C28430AC637430A33
:105810002447430A9656430A1D66430AB875430A4D
:105820006885430A2B95430A03A5430AF0B4430A4B
:10583000F1C4430A06D5430A2FE5430A6DF5430A2E
:10584000BF05440A2516440AA026440A2F37440AF5
:10585000D247440A8A58440A5669440A377A440AA5
:105860002B8B440A349C440A52AD440A83BE440A3A
:10587000C9CF440A24E1440A93F2440A1604450AB3
:10588000AD15450A5927450A1939450AED4A450A11
:10589000D65C450AD36E450AE480450A0A93450A58
:1058A00044A5450A92B7450AF5C9450A6CDC450A84
:1058B000F7EE450A9701460A4B14460A1327460A93
:1058C000F039460AE14C460AE65F460A0073460A8A
:1058D0002E86460A7099460AC7AC460A32C0460A66
:1058E000B1D3460A45E7460AEDFA460AA90E470A29
:1058F0007A22470A5E36470A584A470A655E470ACF
:105900008772470ABE86470A089B470A67AF470A5D
:10591000DBC3470A62D8470AFEEC470AAE01480AD1
:105920007316480A4C2B480A3940480A3B55480A26
:10593000516A480A7B7F480ABA94480A0DAA480A65
:1059400074BF480AEFD4480A7FEA480A2400490A8B
:10595000DC15490AA92B490A8A41490A8057490A94
:105960008A6D490AA883490ADB99490A22B0490A83
:105970007DC6490AECDC490A70F3490A080A4A0A5A
:10598000B5204A0A76374A0A4B4E4A0A35654A0A12
:10599000337C4A0A45934A0A6BAA4A0AA6C14A0AB4
:1059A000F5D84A0A59F04A0AD1074B0A5D1F4B0A3B
:1059B000FE364B0AB24E4B0A7C664B0A597E4B0AA6
:1059C0004B964B0A51AE4B0A6CC64B0A9BDE4B0AF8
:1059D000DEF64B0A350F4C0AA1274C0A21404C0A2F
:1059E000B6584C0A5F714C0A1C8A4C0AEDA24C0A4C
:1059F000D3BB4C0ACDD44C0ADCED4C0AFF064D0A51
:105A000036204D0A81394D0AE1524D0A556C4D0A36
:105A1000DE854D0A7B9F4D0A2CB94D0AF1D24D0A05
:105A2000CBEC4D0AB9064E0ABC204E0AD23A4E0AB9
:105A3000FE544E0A3D6F4E0A91894E0AF9A34E0A52
:105A400075BE4E0A06D94E0AABF34E0A650E4F0AD2
:105A500032294F0A15444F0A0B5F4F0A167A4F0A34
:105A600035954F0A68B04F0AB0CB4F0A0CE74F0A82
:105A70007D02500A011E500A9B39500A4855500AAF
:105A80000A71500AE08C500ACAA8500AC9C4500AC8
:105A9000DCE0500A03FD500A3F19510A8F35510AC4
:105AA000F451510A6C6E510AF98A510A9BA7510AA6
:105AB00051C4510A1BE1510AF9FD510AEC1A520A6C
:105AC000F337520A0E55520A3E72520A828F520A18
:105AD000DAAC520A47CA520AC8E7520A5E05530AAC
